:040000000C94A000BC
:040038000C941F0302
:0C0048000C94B1030C94E5030C94D50358
:14006800000000007A006E65787400423D50524F4752414DB4
:14007C000053573200747275650066616C73650053573100EE
:1400900000000000000000000000000000000000000000005C
:1400A400000000000000000000000000000000000000000048
:1400B800000000000000000000000000000000000000000034
:1400CC00000000000000000000000000000000000000000020
:1400E00000000000000000000000000000000000000000000C
:1400F4000000000000000000000000000000000000000000F8
:140108000000000000000000000000000000000000000000E3
:14011C000000000000000000000000000000000000000000CF
:140130000000000000000000000000001B7E7E00CFEFD4E032
:14014400CDBFDEBFCE51D0400AEA08830024E8EDF1E012E014
:14015800E831F10711F00192FBCF0083E8E6F0E0A0E0B1E0F2
:14016C0011E000E00BBFE034F10721F0C89531960D92F9CF3C
:140180000E94FE02FFCF01C0A895F999FDCF12BD01BD20BD35
:14019400FA9AF99A08958FEF84B98FE387B980EC88B984E015
:1401A8008AB90895202E209438B0322038B80895202E209498
:1401BC003BB032203BB8089528B0202A28B808952BB0202A9E
:1401D0002BB808950E94D0067901A8018A010E94F105680174
:1401E40087010E94F105B801AA24C016D10611F0002717C0B4
:1401F800AA240FC0EA2DFF27EE0DFF1D2080EA2DFF27E40F32
:14020C00F51F3080321411F0002707C0A3942A2C33242C14C1
:140220003D0460F301E00C94C5065A9808955A9A0895AA928E
:14023400BA925801F8DF85010E9425050E948F03B990A99032
:1402480008950E94D60669015801EBDFCC2011F4DD2019F003
:14025C0086010E946E030E946B045801AA2011F4BB20C9F324
:140270000E9479030C94B706AA92BA925801D7DF85010E9440
:1402840025050E948F03B990A99008950E94D60669015801A8
:14029800CADFCC2011F4DD2019F086010E946E030E946B0407
:1402AC005801AA2011F4BB20C9F30E9479030C94B7060E9462
:1402C000E5066801AA24BB244427552728E030E0241B350BAB
:1402D400FA01EC0DFD1D00811127005310400E940E07A00E47
:1402E800B11EFA01EC0DFD1D80819927C09739F08130E0E073
:1402FC009E0719F00027112707C04F5F5F4F4830E0E05E0721
:14031000ECF285010C94EC068ADF0E948F030E9493030E946C
:14032400980308EC10E00E945B030E948B030E948F0304E6F8
:1403380010E00E945B030E9493030C9498030E94F306B801FA
:14034C00289724E231E08B013FDF002351F04F9B04C00EE11C
:1403600011E067DF7EC009E111E063DF7AC025E131E08B011A
:140374002FDF002351F04C9B04C00EE111E057DF6EC009E12A
:1403880011E053DF6AC0FB0180818C3639F422843324309269
:14039C000101209200015FC0FB018081863611F4B5DF59C00E
:1403B000FB018081833709F054C020900001309001012220C0
:1403C40019F4332009F44BC046815527AA24BB24CC24DD24DC
:1403D800F601E60FF71F2780CE01F601E80FF91F2082C6012A
:1403EC0001966C018830E0E09E0784F38E0161DF68015601D6
:140400004030450759F4C501809590958F7790702BB03324A7
:14041400282239222BB823C04130E0E05E0759F4C5018095AB
:1404280090958770907028B033242822392228B814C04230AA
:14043C00E0E05E0781F4C5019595879595958795959587957A
:14045000809590958770907028B033242822392228B82896F5
:140464000C94FC060E94F306B901680156016030670719F4C2
:1404780001E010E010C04427552707C0960185010E94A706B5
:14048C0058014F5F5F4FCB01019748175907A0F385010C94CB
:1404A000FC060E94D206780187010E94F1056801AA24BB241D
:1404B4004427552717C0CA0101969601281B390B0AE010E01C
:1404C800CFDF1801FA01EE0DFF1D0081112700531040910159
:1404DC000E94A706A00EB11E4F5F5F4F4C155D0534F3850174
:1404F0000C94BC060E94D006A8012297FA0160816336E1F472
:140504008F010E94F105C80101976C01EE24FF2409C01701D7
:14051800240E351EF10121802082C70101967C01EC14FD0438
:14052C00A4F3F601E40FF51F222420828A0105DF623619F02E
:14054000623409F035C0FA018181833709F582E091E0FE019C
:1405540002E010E0FA93EA939A938A930E9415070BE011E0D3
:1405680087DE04E610E00E945B030DC0222733278A0167DE00
:14057C008A017CDE09E110E00E945B0306E011E052DEF2CFE4
:140590002FEF0EEF13E0F7DD2FEF0FEF13E0F3DD04E610E0BC
:1405A4000E946E0304EF11E00E945B036A3711F06A3579F49E
:1405B8003ADE0AE010E00E945B0304E011E00E9425050E94FA
:1405CC008F030AE010E00E945B03623731F0673721F06235AF
:1405E00011F0673541F48A0147DE28EB3BE085014FDE85011E
:1405F4001EDE22960C94C5060E949D03CCDD78940E94110327
:1406080087DE09C00EDE0E946B045801AA2011F4BB20C9F3F4
:14061C006BDFF6CF089582E084BD83E085BD8DE787BD2224D8
:1406300026BC80916E00826080936E0008952A923A928A93B0
:140644009A93AA93EA932FB62A922090280130902901222015
:1406580011F4332049F0809128019091290101979093290193
:14066C008093280180912C0190912D018130E0E09E0791F416
:1406800080912A0190912B01019790932B0180932A01209008
:140694002A0130902B01222019F4332009F4AECC29902FBE7C
:1406A800E991A99199918991399029901895109329010093B7
:1406BC00280120902801309029012220D1F73320C1F708958C
:1406D00000912A0110912B011070089510932B0100932A01E3
:1406E40081E090E090932D0180932C010895222433243092A4
:1406F8002B0120922A0130922D0120922C01089527E030E062
:14070C000091C00011270C94020607D004ED11E086C10DE0BB
:1407200084C00AE082C02090310120923001089520902F0113
:1407340020922E01089522242092C1002092C00086E080938F
:14074800C2002092C5008DE08093C40088EF8093C100009144
:14075C00C600589A08952A928A939A93EA93FA932FB62A9283
:1407700088EF91E0E0912F01FF27E80FF91F2090C60020829F
:1407840080912F018F5F282E20922F01803218F02224209248
:140798002F0129902FBEF991E99199918991299018950A932C
:1407AC008A930FB70A930091C6008091C10080618093C100DB
:1407C00009910FBF8991099118952A923A928A939A93EA930D
:1407D400FA932FB62A9220903101309030013214A1F088EDC4
:1407E80091E0E32DFF27E80FF91F20802092C600832D8F5F91
:1407FC00282E20923001803248F022242092300105C08091C7
:14081000C1008F7D8093C10029902FBEF991E9919991899145
:14082400399029901895AA92A02E8091C1008F7E8093C100D4
:14083800A89510E2009131010F5F0E948F062090300102151D
:14084C00B1F388ED91E0E0913101FF27E80FF91FA082809103
:1408600031018F5F282E20923101803218F022242092310146
:140874008091C10080628093C100A990089520902F01309072
:140888002E01321499F088EF91E0E32DFF27E80FF91F0081B0
:14089C001127832D8F5F282E20922E01803230F02224209271
:1408B0002E0102C00FEF1FEF08954A93402F4A3011F40DE0E2
:1408C400B2DF042FB0DF042F112749910895D7CFD6CF0E94FE
:1408D800DB064427552744C06830E0E07E0721F06F37E0E0EC
:1408EC007E0759F480E020908201821508F036C0822D81508E
:140900008093820131C06D30E0E07E0771F482E391E0E091CE
:140914008201FF27E80FF91F222420822092820142E351E0A4
:140928001FC0209082013324822D8F5F8093820182E391E049
:14093C00E22DFF27E80FF91F6083809182018F3468F082E36C
:1409500091E0E0918201FF27E80FF91F2224208220928201DC
:1409640042E351E0B4DFB8016F3FEFEF7E0709F0B5CF8A01C4
:140978000C94E0060E94DB064427552748C06830E0E07E0796
:14098C0021F06F37E0E07E0759F480E02090D301821508F09B
:1409A0003AC0822D81508093D30135C06D30E0E07E0721F0FA
:1409B4006A30E0E07E0771F483E891E0E091D301FF27E80FAD
:1409C800F91F222420822092D30143E851E01FC02090D301D6
:1409DC003324822D8F5F8093D30183E891E0E22DFF27E80F24
:1409F000F91F60838091D3018F3468F083E891E0E091D301D7
:140A0400FF27E80FF91F222420822092D30143E851E05DDFA3
:140A1800B8016F3FEFEF7E0709F0B1CF8A010C94E0064A9399
:140A2C005A93A80105C0FA01008141DF4F5F5F4FFA012080C8
:140A40002220B9F75991499108954A935A93A80105C0FA011C
:140A5400008131DF4F5F5F4FFA0120802220B9F75991499150
:140A68000895AA92BA925801A2978AE090E09983888395012C
:140A7C008E010E5F1F4F0E942D078E010E5F1F4FDEDFA296C7
:140A9000B990A9900895AA92BA925801A2978AE090E0998323
:140AA400888395018E010E5F1F4F0E94FE088E010E5F1F4F21
:140AB800C8DFA296B990A99008950E94FD05A4978AE090E073
:140ACC009B838A832CA03DA04EA05FA04882598291018E018F
:140AE0000C5F1F4F0E94B4078E010C5F1F4FADDFA8960895FD
:140AF4000E94FD05A4978AE090E09B838A832CA03DA04EA073
:140B08005FA04882598291018E010C5F1F4F0E9482088E0180
:140B1C000C5F1F4F94DFA8960895AA92BA925801A29780E123
:140B300090E09983888395018E010E5F1F4F0E942D078E01B5
:140B44000E5F1F4F80DFA296B990A9900895AA92BA9258012B
:140B5800A29780E190E09983888395018E010E5F1F4F0E94B6
:140B6C00FE088E010E5F1F4F6ADFA296B990A99008950E94C3
:140B8000FD05A49780E190E09B838A832CA03DA04EA05FA092
:140B94004882598291018E010C5F1F4F0E94B4078E010C5F57
:140BA8001F4F4FDFA89608950E94FD05A49780E190E09B83F4
:140BBC008A832CA03DA04EA05FA04882598291018E010C5F51
:140BD0001F4F0E9482088E010C5F1F4F36DFA8960895E02F10
:140BE400F12FAA27BB270190002011F01196FBCF0A2F1B2F84
:140BF80008953A932A931A930A930895222321F0159507953F
:140C0C002A95FACF0895689401C0E894EA92FA928A93EE243F
:140C2000FF2480E1000F111FEE1CFF1CE216F30618F0E21AE3
:140C3400F30A03958A95A1F716F40E2D1F2D8991F990E990B3
:140C48000895E89401C0689430D0CC2409C0E89401C06894D0
:140C5C002AD037FD0E940507B7FD52D0772488249924AA2400
:140C7000BB2442D0C1F045D0B1F0E8E2000F111F221F331F7C
:140C8400771C881C991CAA1CBB1C88169906AA06BB0628F00D
:140C9800881A990AAA0ABB0A0395EA9559F726F4082D192D8E
:140CAC002A2D3B2D13C07A928A929A92AA92BA92CA92EA93ED
:140CC0008A939A93AA93BA938B859C85AD85BE85C32E0EF0B7
:140CD400CB260895C7FC0E940507B991A99199918991E991CB
:140CE800C990B990A99099908990799024960895E02FE12B60
:140CFC00E22BE32B0895E82FE92BEA2BEB2B089580959095FF
:140D1000A095B0958F5F9F4FAF4FBF4F0895689401C0E89497
:140D24002A93FA92EA92FF24EE2420E1000FFF1CEE1CE11695
:140D380010F0E11A03952A95B9F70EF40E2DE990F9902991AC
:140D4C0008950A921A928A939A93029FC001129F900D039F12
:140D6000900D8C0199918991199009900895A990B990C99057
:140D7400D9900895A990B990C990D990E990F990499159915B
:140D88000895A990B990C990D990E990F990499159916991B6
:140D9C00799108957A936A935A934A93FA92EA92DA92CA92F8
:140DB000BA92AA9208957A936A935A934A93089549915991D5
:140DC4006991799108955A934A93DA92CA92BA92AA920895C3
:140DD800A990B990C990D9904991599108957A936A935A936B
:140DEC004A93DA92CA92BA92AA920895A990B990C990D990E5
:140E00004991599169917991089500951095209530950F5F57
:140E14001F4F2F4F3F4F0895222321F0000F111F2A95FACF96
:140E28000895AA93BA93EA93FA930A92AF81B885ED81FE818F
:140E3C000030010729F001900D9201501040F8CF0990F99196
:140E5000E991B991A991249608950E94FD050E94D006422FAC
:140E6400532FEE84FF84A42EB52EAA2059F4BB2049F480E3BC
:140E7800EA85FB858083222421820E2F1F2F6CC04030E0E0A4
:140E8C005E0784F48E2D9F2D8A30E0E09E0751F4CC24C39443
:140EA0008A2D9B2D809590950196A82EB92E01C0CC246A8591
:140EB4007B852E2D3F2D0A2D1B2D0E940906402F512F89E0DB
:140EC80090E0801791074CF0842F952FC096E62FF72F81931F
:140EDC006E2F7F2F09C0842F952F895A9F4FE62FF72F819357
:140EF0006E2F7F2F2E2D3F2D0A2D1B2D0E940B06A02EB12EFD
:140F0400AA20B9F6BB20A9F6CC2031F08DE2E62FF72F81931B
:140F18006E2F7F2F462E572E615070402224E42DF52D208205
:140F2C00AA84BB8412C0EA2DFB2DC080E62FF72F2080EA2D01
:140F4000FB2D2192AE2EBF2E262E372E61507040E22DF32DB0
:140F5400C082A616B70658F30A851B850E94C5062496089590
:140F68000E94FD050E94D0062497288839884A885B882882CE
:140F7C0039824A825B82288839884A885B8888942220320443
:140F90004204520449F480E3EE85FF858083222421820E2FF1
:140FA4001F2FA9C040E050E060E070E0288839884A885B887C
:140FB8002416350646065706ECF48C899D898A30A0E09A0711
:140FCC00B9F4AA24A39441E050E060E070E0288039804A8053
:140FE0005B802094309440945094240E351E461E571E2882EA
:140FF40039824A825B8201C0AA24CE84DF842C883D88442460
:1410080037FC4094552447FC5094088119812A813B815A92B7
:14101C004A923A922A920E942706E02EF12E89E090E08017F0
:1410300091074CF08E2D9F2DC096EC2DFD2D8193CE2EDF2E9B
:1410440009C08E2D9F2D895A9F4FEC2DFD2D8193CE2EDF2E17
:141058002C883D88442437FC4094552447FC509408811981D9
:14106C002A813B815A924A923A922A920E94250608831983C5
:141080002A833B83288039804A805B80889422203204420411
:14109400520409F0B4CFAA2031F08DE2EC2DFD2D8193CE2EC9
:1410A800DF2E4C2C5D2C842D952D0197C82ED92E2224E42DC7
:1410BC00F52D2082EE84FF8415C0EE2DFF2DA080EC2DFD2DE8
:1410D0002080EE2DFF2D2192EE2EFF2E2C2C3D2C822D932DF9
:1410E4000197C82ED92EE22DF32DA082EC14FD0440F30E854B
:1410F8001F8524960E94C506249608953A932A930E94D006C0
:14110C00A02EB12ECE84DF844A2D5B2D2C2C3D2C442437FC12
:141120004094552447FC50940A851B852C853D855A924A92DD
:141134003A922A920E942706602F712F89E090E08017910719
:141148004CF0862F972FC096E42FF52F81934E2F5F2F09C067
:14115C00862F972F895A9F4FE42FF52F81934E2F5F2F2C2C85
:141170003D2C442437FC4094552447FC50940A851B852C8513
:141184003D855A924A923A922A920E9425060A871B872C8792
:141198003D872A843B844C845D848894222032044204520431
:1411AC0009F0B4CF442E552E415050402224E42DF52D208282
:1411C000CA2CDB2C12C0EC2DFD2DE080E42FF52F2080EC2DB9
:1411D400FD2D2192CE2EDF2E242E352E41505040E22DF32D1C
:1411E800E082C416D50658F30A2D1B2D0E94C5062296089550
:1411FC000E94D006C22ED32EA02EB12EEA84FB844A2D5B2DDD
:141210002E2D3F2D0C2D1D2D0E940906602F712F89E090E0C7
:14122400801791074CF0862F972FC096E42FF52F81934E2FB2
:141238005F2F09C0862F972F895A9F4FE42FF52F81934E2F37
:14124C005F2F2E2D3F2D0C2D1D2D0E940B06C02ED12ECC202A
:14126000B9F6DD20A9F6442E552E415050402224E42DF52DA0
:141274002082CA2CDB2C12C0EC2DFD2DE080E42FF52F20807B
:14128800EC2DFD2D2192CE2EDF2E242E352E41505040E22D6E
:12129C00F32DE082C416D50658F30A2D1B2D0C94C506D4
:00000001FF
